:100000000C9463000C94000C0C942D0C0C948B003D
:100010000C948B000C948B000C948B000C941602A7
:100020000C948B000C948B000C948B000C948B0024
:100030000C948B000C948B000C948B000C948B0014
:100040000C94690C0C948B000C94C9080C94100946
:100050000C948B000C948B000C948B000C948B00F4
:100060000C944E030C948B00000000002400270029
:100070002A0000000000250028002B0000000000DE
:1000800023002600290004040404040404040202DA
:100090000202020203030303030301020408102007
:1000A0004080010204081020010204081020000012
:1000B0000007000201000003040600000000000029
:1000C000000068054D0A11241FBECFEFD8E0DEBF47
:1000D000CDBF13E0A0E0B1E0E4ECFFE102C0059089
:1000E0000D92AA38B107D9F716E0AAE8B3E001C02B
:1000F0001D92AC3AB107E1F710E0C6ECD0E004C0C5
:100100002297FE010E94DC0FC23CD107C9F70E9472
:100110005A0C0C94E00F0C940000809195038130F0
:1001200009F0BBC0109295038DEF95E060918E03AE
:100130004AE050E00E94750B8DEF95E060E071E0C1
:100140000E94DA0B80918E03833009F469C08430F9
:1001500030F4813059F0823009F09FC03EC08430C5
:1001600009F452C0853009F098C064C00E94790635
:100170008823E1F36091910370919203409193037E
:100180005091940380918F030E9437068DEF95E084
:1001900060918F030E94CD0A8DEF95E062E071E0DF
:1001A0000E94DA0B60919103709192038DEF95E0BC
:1001B0004AE050E00E94640B8DEF95E062E071E050
:1001C0000E94DA0B60919303709194038DEF95E098
:1001D0004AE050E00E94640B10C080918F03909120
:1001E00090030E94180360918F03709190038DEF2C
:1001F00095E04AE050E00E94C70B8DEF95E064E087
:1002000071E00E94DA0B49C00E94120380918F03B3
:10021000909190030E94F40681E00E94FB06E3CFD8
:100220000E94120380E090E00E94F40680E00E94A9
:10023000FB0633C060918F03709190038DEF95E0C2
:100240004AE050E00E94640B8DEF95E064E071E0BD
:100250000E94DA0B80918F03909190038130910579
:1002600059F08130910518F00297B9F40EC0109240
:100270008B0310928A0311C08CE893E090938B0358
:1002800080938A0310928C0308C08DE893E09093CA
:100290008B0380938A0310928D0380918A0390913F
:1002A0008B038C58934021F40E94600280938C034E
:1002B00080918A0390918B038D58934021F40E9482
:1002C000790680938D0308950F931F93F8948DEF13
:1002D00095E040E855E260E070E00E9440090AEED7
:1002E00015E0C80162E070E00E94FF05C80169E006
:1002F00072E00E946305C80165EB71E00E945E0533
:100300000E9401070E94DE060E94020680E8809398
:10031000B00092E09093B10083EC8093B30090938F
:10032000700082E060E00E94EC0C80E06DEA71E019
:1003300042E050E00E94DD0B0E94340886E091E02C
:1003400060E040E020E00E946B070E945F020E9494
:10035000120378941F910F91089582E00E947F0DFF
:10036000019711F40E946F0608950F931F9381E087
:100370008093950306C08AEE95E00E94060580935F
:100380008E038AEE95E00E94FD040797A4F78AEE9B
:1003900095E00E9406058C019093900380938F0353
:1003A0008AEE95E00E940605382F20E0202B312BA5
:1003B0003093900320938F038AEE95E00E94060508
:1003C0008C0190939203809391038AEE95E00E94B2
:1003D0000605382F20E0202B312B309392032093F9
:1003E00091038AEE95E00E9406058C019093940398
:1003F000809393038AEE95E00E940605382F20E053
:10040000202B312B30939403209393031F910F9152
:100410000895E0918A03F0918B036081772767FD4F
:1004200070958AEE95E00E94B00508951F920F9294
:100430000FB60F9211242F933F934F935F936F93B7
:100440007F938F939F93AF93BF93EF93FF931092FC
:10045000B200809196039091970301969093970331
:10046000809396030E94890680919603909197034A
:1004700062E370E00E94A40F892B11F40E94E10254
:10048000809196039091970360E177E20E94A40F18
:10049000892B21F41092970310929603FF91EF910C
:1004A000BF91AF919F918F917F916F915F914F918C
:1004B0003F912F910F900FBE0F901F9018950895A8
:1004C000E3EAF3E020E030E081919191280F391FB9
:1004D00085E0E333F807C1F780E0283C310508F4F4
:1004E00081E008950E94070790939B0380939A03ED
:1004F0000E940A07609198037091990320919A03D2
:1005000030919B03621B730B882777FD8095982F92
:100510000E946E0E2DEC3CEC4CE45DE30E94220F39
:1005200020919C0330919D0340919E0350919F0325
:100530000E94D30D60939C0370939D0380939E0350
:1005400090939F0320E030E04FEA53E40E941E0F97
:10055000181664F480E090E0AFEAB3E480939C0363
:1005600090939D03A0939E03B0939F0360919C037F
:1005700070919D0380919E0390919F0320E030E055
:1005800048EC52EC0E94370E882364F480E090E03F
:10059000A8ECB2EC80939C0390939D03A0939E03E0
:1005A000B0939F0360919C0370919D0380919E0383
:1005B00090919F030E943B0EDC01CB010E94F40648
:1005C00008958091A203813061F50E9472024091EA
:1005D000A0035091A103FA01EE0FFF1FED55FC4F50
:1005E000209198033091990380919A0390919B03F5
:1005F000281B390B3183208337FF06C088279927B2
:10060000821B930B91838083CA0101969093A1036F
:100610008093A003893C910520F01092A1031092D1
:10062000A003089580E00E94FB061092A2030895A3
:10063000909399038093980381E00E94FB0681E0E8
:100640008093A2030E940A070895880F8093BA003E
:100650000895482F613210F081E0089580913305AC
:10066000843011F082E0089560937E05ADE5B5E039
:10067000842F9C01F90102C081918D938E2F841BE0
:100680008617D0F380E0089590933A05809339055A
:100690000895909338058093370508951F920F921F
:1006A0000FB60F9211242F933F934F935F936F9345
:1006B0007F938F939F93AF93BF93EF93FF9380911B
:1006C000B90090E0887F90708036910509F4F2C0FF
:1006D00081369105CCF58832910509F47BC08932C9
:1006E0009105B4F48031910509F46FC08131910511
:1006F0003CF4009709F447C1089709F04FC165C061
:100700008831910509F466C0809709F047C182C01D
:100710008034910509F4A4C08134910544F48033F8
:10072000910509F482C0C89709F038C189C08035A5
:10073000910509F489C08835910509F496C088347B
:10074000910509F02BC1AEC08839910509F413C198
:1007500089399105ECF48837910509F4ABC08937E4
:1007600091054CF48836910509F4A4C080379105B1
:1007700009F014C19FC08838910509F4FCC0803984
:10078000910509F49DC08038910509F007C198C012
:10079000803B910509F4C6C0813B91054CF4803A39
:1007A000910509F49FC0883A910509F0F7C0BAC0D5
:1007B000803C910509F4E3C0883C910509F4DFC051
:1007C000883B910509F0EAC0C2C08091340580934E
:1007D000BB00CFC090915B0580915C05981768F4D1
:1007E00090915B05E92FF0E0E55CFA4F8081809302
:1007F000BB009F5F90935B05BCC08091350588234B
:1008000009F44BC085ED8093BC008091BC0084FD51
:10081000FCCFC2C080E28093A00585ED8093BC0030
:100820008091BC0084FDFCCFB7C080E38093A0051D
:1008300085ED8093BC008091BC0084FDFCCFACC0F2
:1008400088E38093A0059BC080915B059091BB00DD
:10085000E82FF0E0E55CFA4F90838F5F80935B05B3
:1008600090915B0580915C0582C080915B059091C1
:10087000BB00E82FF0E0E55CFA4F90838F5F809338
:100880005B0580913505882341F085ED8093BC00A0
:100890008091BC0084FDFCCF7FC081E08093360551
:1008A00084EA6EC085ED8093BC008091BC0084FD1D
:1008B000FCCF72C083E08093330510929F0559C02E
:1008C00080919F05803208F056C080919F059091DD
:1008D000BB00E82FF0E0E158FA4F90838F5F8093E0
:1008E0009F0547C080919F05803230F4E0919F05BD
:1008F000F0E0E158FA4F108285ED8093BC008091C2
:10090000BC0084FDFCCF1092330560919F05E091FF
:100910003905F0913A058FE795E070E0099510925E
:100920009F052DC084E08093330510927D051092C1
:100930007E05E0913705F0913805099580917E0597
:10094000882329F481E080937E0510925D059091C3
:100950007D05E92FF0E0E35AFA4F80818093BB00D8
:100960009F5F90937D0590917D0580917E059817FE
:1009700010F485EC01C085E88093BC000FC085ECC5
:100980008093BC0009C01092A00585ED8093BC0047
:100990008091BC0084FDFCCF10923305FF91EF9154
:1009A000BF91AF919F918F917F916F915F914F9187
:1009B0003F912F910F900FBE0F901F90189510929E
:1009C000330581E0809335051092360582E161E0C0
:1009D0000E942B0D83E161E00E942B0DE9EBF0E01A
:1009E00080818E7F808380818D7F808388E4809367
:1009F000B80085E48093BC0008952091C20530E0E2
:100A00008091C105281B3109C90108954091C10594
:100A10008091C205481718F02FEF3FEF0AC0E42F6E
:100A2000F0E0EF55FA4F8081282F30E04F5F409380
:100A3000C105C9010895E091C1058091C205E8177B
:100A400018F0EFEFFFEF06C0F0E0EF55FA4F8081AE
:100A5000E82FF0E0CF0108950895AC012091E8055A
:100A60003091E90521153105E1F09091C1058091A2
:100A7000C2059817B0F090E008C0FA01EA0FFB1F1A
:100A80008081AF55BA4F8C939F5FA92FB0E0A61716
:100A9000B7079CF31092C1056093C205CB01F90121
:100AA00009950895E091E605F091E705309729F062
:100AB0001092E3051092E405099508957093E905F5
:100AC0006093E80508957093E7056093E60508953F
:100AD0001092ED051092EC0588EE93E0A0E0B0E0F6
:100AE0008093EE059093EF05A093F005B093F10588
:100AF00084E391E09093EB058093EA050895CF920B
:100B0000DF92EF92FF920F931F93CF93DF937C01BD
:100B10006B018A018091E5058823A1F0C0E0D0E057
:100B20000DC0D701ED91FC91D601AC0FBD1F019016
:100B3000F081E02DC7016C9109952196C017D1076E
:100B400080F304C0CB01642F0E942903C801DF9108
:100B5000CF911F910F91FF90EF90DF90CF9008956C
:100B6000DF93CF930F92CDB7DEB7FC0169838091FD
:100B7000E5058823C9F08091E405803238F081E0F2
:100B800090E09383828320E030E015C08091E305FC
:100B9000E82FF0E0ED53FA4F998190838F5F8093B7
:100BA000E3058093E40505C0CE01019661E00E9453
:100BB000290321E030E0C9010F90CF91DF91089522
:100BC0001092C1051092C2051092E3051092E4053F
:100BD0000E94DF0408950F931F938C01862F0E94BB
:100BE000250382E595E00E9449038DE295E00E948D
:100BF0004403C8010E94E0051F910F9108950E94CF
:100C0000EB05089587B18F6087B9559A5D9808956F
:100C10009091FC05980F9093FC0597FF04C083E02A
:100C20008093FC0504C0943014F01092FC05809170
:100C3000FC05813079F082301CF4882331F008956E
:100C4000823059F0833091F40DC0409A4198429817
:100C5000439A0895409A419802C04098419A429A16
:100C6000439808954098419A4298439A0895E82FEE
:100C70008091F8059091F905A091FA05B091FB05D6
:100C80000097A105B10511F080E00895CA01403137
:100C9000510510F08FE090E024E130E0281B390B83
:100CA00030930E0120930D015D9AE0930F01CB016B
:100CB000A0E0B0E043E0880F991FAA1FBB1F4A9530
:100CC000D1F78093F8059093F905A093FA05B093B6
:100CD000FB053093F7052093F60581E00895109207
:100CE000F8051092F9051092FA051092FB055D982F
:100CF000089520E08091F8059091F905A091FA05FA
:100D0000B091FB050097A105B10509F421E0822F00
:100D1000089582E00E947F0D892BB1F48EE090E06F
:100D200090930E0180930D015D9A81E080930F01F5
:100D300080E590E0A0E0B0E08093F8059093F9059D
:100D4000A093FA05B093FB058091F8059091F90501
:100D5000A091FA05B091FB050097A105B10561F1DD
:100D60008091F6059091F705009701F580910D01AE
:100D700090910E019093F7058093F60580910F01F5
:100D80000E9408068091F8059091F905A091FA0556
:100D9000B091FB050197A109B1098093F8059093E3
:100DA000F905A093FA05B093FB0508950197909378
:100DB000F7058093F60508955D980895209A229A84
:100DC000289A83E68093800089E1809381008FE1F7
:100DD00093E090938900809388008FE891E090934E
:100DE0008B0080938A00089581579E4F90938B00CB
:100DF00080938A000895882311F4289A08952898EA
:100E000008955C9885B5876085BD16BC089586B544
:100E100090E0089516BC08959C01E0E1F1E0808126
:100E2000918182239323892B11F02C9A01C02C9855
:100E30002D9A2D98329681E0E033F80781F70895D6
:100E40005E985F9838E020E8482F50E02D98822F78
:100E500090E084239523892B11F02C9A01C02C98C3
:100E60002D9A2D983F5F303111F02695EFCF5E9A85
:100E700008950F931F938B010E942007C8010E94C1
:100E80000C075F9A1F910F91089584E460E073E866
:100E90000E94390785E460E073E80E94390781E227
:100EA00063E873E80E94390782E20E9420072C98C9
:100EB00020E030E00CC02D9A2D98019648E0803457
:100EC0009407C9F72F5F3F4F2438310519F080E0B0
:100ED00090E0F1CF08955F926F927F928F929F92F0
:100EE000AF92BF92CF92DF92EF92FF920F931F9338
:100EF000CF93DF935C01522E86E0689F600111243E
:100F000050E0F3E0440F551FFA95E1F723E830E095
:100F1000B901641B750B762F66273B01641A750AAD
:100F20008CE790E0680E791E2C193D090EE710E061
:100F30000C191D09922F8827080F191F4901860EC9
:100F4000971E7DC084E4B8010E94390785E4B3018F
:100F50000E94390781E2B4010E94390782E20E94AF
:100F60002007EE24FF24552049F5C0E0D0E0F5012C
:100F70008081992787FD90958097FC01EE0FFF1FD8
:100F8000E80FF91FEE0FFF1FEE0DFF1DE05CFE4F97
:100F9000808190E00C2E02C0959587950A94E2F727
:100FA00080FF03C08FEF9FEF02C080E090E00E94BF
:100FB0000C072196C830D105D1F628C0C0E0D0E09A
:100FC000F5018081992787FD90958097FC01EE0FB0
:100FD000FF1FE80FF91FEE0FFF1FEE0DFF1DE05C76
:100FE000FE4F808190E00C2E02C0959587950A9463
:100FF000E2F780FF03C080E090E002C08FEF9FEF38
:101000000E940C072196C830D105D1F60894E11C46
:10101000F11CF6E0EF16F10409F0A5CF06501640DA
:101020008AEF9FEF880E991E98E7C916D10460F4E5
:10103000E6E0F0E0CE0EDF1E0894A11CB11CF50125
:101040008081882309F07ECFDF91CF911F910F918E
:10105000FF90EF90DF90CF90BF90AF909F908F90D8
:101060007F906F905F90089584B1886384B98AB14E
:10107000806C8AB98BE060E00E942B0D8BE061E010
:101080000E942B0D80E164E87FE20E94390781E134
:101090006CE070E00E94390787E061E270E00E9436
:1010A000390788E266E070E00E94390788E265E06F
:1010B00070E00E94390787E26FE775E00E94390708
:1010C00089E261EA79E80E94390780E061E070E036
:1010D0000E94390789E260EB70E80E94390789E2D3
:1010E0006EEF7FEF0E94390787E063E270E00E94B5
:1010F000390787E063E370E00E94390781E063E825
:1011000071E20E9439078FE26FEF7FEF0E9439078B
:101110008CE260E070E80E94390783E068E078E6DE
:101120000E94390787E260E775E00E94390782E094
:1011300060E073E00E9439078BE06CE078E50E9484
:10114000390782E169E076E00E94390783E160E0D7
:1011500071E30E9439078AE260ED7DE10E94390760
:101160008BE260E97AE00E9439078DE26FE071E37B
:101170000E9439078EE16FEB70E00E9439078EE123
:1011800060E070E00E9439070E94450781E0089501
:1011900008951F920F920FB60F9211242F933F9331
:1011A0004F938F939F93EF93FF938091C00082FDA5
:1011B00019C04091C60080911B06282F30E02F5F98
:1011C0003F4F2F73307080911C0690E0281739072D
:1011D00059F0E0911B06F0E0E350FA4F42A3209350
:1011E0001B0602C08091C600FF91EF919F918F91E5
:1011F0004F913F912F910F900FBE0F901F90189518
:1012000080911B0620911C0690E0805C9F4F821B02
:1012100091098F739070892B11F00E94C80808956E
:101220001F920F920FB60F9211242F938F939F93BB
:10123000EF93FF9390911D0680911E06981731F44D
:101240008091C1008F7D8093C10010C0E0911E0687
:10125000F0E0E15AF94F208180911E0690E001965E
:101260008F73907080931E062093C600FF91EF91BC
:101270009F918F912F910F900FBE0F901F901895F7
:10128000AF92BF92DF92EF92FF920F931F93CF9393
:10129000DF93EC017A018B01DD24403081EE5807A9
:1012A00080E0680780E0780711F0DD24D39491E0B6
:1012B000A92EB12CE889F989DD2069F0C5010C8CD3
:1012C00002C0880F991F0A94E2F7808360E079E0FA
:1012D0008DE390E005C0108260E874E88EE190E054
:1012E000A80197010E94B80F215030404040504063
:1012F000569547953795279580E12030380720F09F
:10130000DD2011F0DD24D6CFEC85FD853083EE8520
:10131000FF8520831D8EEA89FB89408121E030E032
:10132000C901088C02C0880F991F0A94E2F7482B64
:101330004083EA89FB894081C901098C02C0880F7A
:10134000991F0A94E2F7482B4083EA89FB89408180
:10135000C9010A8C02C0880F991F0A94E2F7482B32
:101360004083EA89FB8980810B8C02C0220F331FE6
:101370000A94E2F7209528232083DF91CF911F91D3
:101380000F91FF90EF90DF90BF90AF900895FC0118
:10139000268D878D30E0205C3F4F281B31092F734D
:1013A0003070C9010895FC01968D878D981719F446
:1013B0002FEF3FEF06C0878DE80FF11D82A1282F88
:1013C00030E0C9010895DC015E969C915E975F96BE
:1013D0008C915F97981719F42FEF3FEF10C05F962D
:1013E0008C915F97FD01E80FF11D92A15F968C91A2
:1013F0005F978F5F8F735F968C93292F30E0C901C1
:101400000895DC015D968C915D97882339F05096A4
:10141000ED91FC915197808186FFF9CF5D961C92EA
:101420000895DC0190968C919097282F30E02F5FE3
:101430003F4F2F73307091968C91919790E02817C1
:101440003907C9F390968C919097FD01E80FF11D33
:10145000EE59FF4F608390962C9390975296ED91A2
:10146000FC915397208181E090E05B960C905B9714
:1014700002C0880F991F0A94E2F7282B208381E08D
:101480005D968C935D975096ED91FC91519780817C
:101490008064808381E090E00895109200061092AD
:1014A000FF0588EE93E0A0E0B0E080930106909302
:1014B0000206A0930306B09304068EE793E0909390
:1014C000FE058093FD0510921E0680911E068093F6
:1014D0001D0610921C0680911C0680931B0685EC4D
:1014E00090E090930A068093090684EC90E0909334
:1014F0000C0680930B0680EC90E090930E06809390
:101500000D0681EC90E09093100680930F0682EC1C
:1015100090E0909312068093110686EC90E09093F1
:1015200014068093130684E08093150683E080936D
:10153000160687E08093170685E08093180681E001
:10154000809319060895CF92DF92EF92FF920F9346
:101550001F93CF93DF937C016B018A01C0E0D0E041
:101560000FC0D6016D916D01D701ED91FC910190F5
:10157000F081E02DC7010995C80FD91F0150104017
:101580000115110571F7CE01DF91CF911F910F91D8
:10159000FF90EF90DF90CF900895DC01ED91FC91EA
:1015A0000190F081E02D09950895CF93DF93EC0130
:1015B0006115710519F420E030E00FC0DB010D90DA
:1015C0000020E9F71197A61BB70BE881F98102808B
:1015D000F381E02DAD0109959C01C901DF91CF9107
:1015E00008954F925F927F928F929F92AF92BF9297
:1015F000CF92DF92EF92FF920F931F93DF93CF93DF
:10160000CDB7DEB7A1970FB6F894DEBF0FBECDBF42
:101610002C01742ECB01223008F42AE019A231E209
:10162000C32ED12CCC0EDD1E822E9924AA24BB24DD
:10163000672D752FA50194010E94B80F79018A01C9
:10164000C801B701A50194010E94850F472D461BD3
:101650000894C108D1084A3014F4405D01C0495CC7
:10166000F6014083E114F1040105110521F07E2CFF
:101670005F2DC801DDCFC201B6010E94D50AA19637
:101680000FB6F894DEBF0FBECDBFCF91DF911F9193
:101690000F91FF90EF90DF90CF90BF90AF909F9011
:1016A0008F907F905F904F900895DC012115310558
:1016B00041F4ED91FC910190F081E02D642F0995AA
:1016C00008950E94F10A0895EF92FF920F931F93DD
:1016D0009A017B0100E010E0B801A7010E94550BC0
:1016E0001F910F91FF90EF900895EF92FF920F934B
:1016F0001F939A01E62EFF2400E010E0B801A70135
:101700000E94550B1F910F91FF90EF900895CF927B
:10171000DF92EF92FF920F931F93CF93DF93EC0131
:101720006A017B012115310541F4E881F9810190BD
:10173000F081E02D642F09951FC02A303105D1F4C6
:1017400077FF17C0E881F9810190F081E02D6DE20B
:1017500009958C0144275527BA014C195D096E097A
:101760007F09CE012AE00E94F10A9801280F391F53
:1017700004C02AE00E94F10A9C01C901DF91CF91C7
:101780001F910F91FF90EF90DF90CF900895EF920F
:10179000FF920F931F937B019A010027F7FC00959E
:1017A000102FB801A7010E94870B1F910F91FF9086
:1017B000EF9008950E94D50A0895823000F5E82F31
:1017C000F0E0EE0FFF1FE156F94F7183608388232D
:1017D00019F08130A1F408C0809169008C7F842BBE
:1017E00080936900E89A089580916900440F551F1D
:1017F000440F551F837F842B80936900E99A0895D5
:101800001F920F920FB60F9211242F933F934F9375
:101810005F936F937F938F939F93AF93BF93EF9358
:10182000FF9380919F069091A006892B29F0E0916B
:101830009F06F091A0060995FF91EF91BF91AF919E
:101840009F918F917F916F915F914F913F912F91D8
:101850000F900FBE0F901F9018951F920F920FB60A
:101860000F9211242F933F934F935F936F937F9326
:101870008F939F93AF93BF93EF93FF938091A106B4
:101880009091A206892B29F0E091A106F091A20681
:101890000995FF91EF91BF91AF919F918F917F91AA
:1018A0006F915F914F913F912F910F900FBE0F90CD
:1018B0001F901895CF93DF930E94B10C0E94640192
:1018C000C0E0D9E00E948D002097E1F30E9400095A
:1018D000F9CF1F920F920FB60F9211242F933F93BF
:1018E0008F939F93AF93BF938091A7069091A80683
:1018F000A091A906B091AA063091AB060196A11D50
:10190000B11D232F2D5F2D3720F02D570196A11DDE
:10191000B11D2093AB068093A7069093A806A093D1
:10192000A906B093AA068091A3069091A406A0915F
:10193000A506B091A6060196A11DB11D8093A30630
:101940009093A406A093A506B093A606BF91AF916D
:101950009F918F913F912F910F900FBE0F901F90ED
:101960001895789484B5826084BD84B5816084BD07
:1019700085B5826085BD85B5816085BDEEE6F0E008
:10198000808181608083E1E8F0E010828081826064
:101990008083808181608083E0E8F0E080818160E5
:1019A0008083E1EBF0E0808184608083E0EBF0E015
:1019B000808181608083EAE7F0E0808184608083B9
:1019C0008081826080838081816080838081806863
:1019D00080831092C1000895CF93DF93482F50E089
:1019E000CA0186569F4FFC0134914A575F4FFA0156
:1019F0008491882369F190E0880F991FFC01E859D0
:101A0000FF4FA591B491FC01EE58FF4FC591D491C1
:101A1000662351F42FB7F8948C91932F90958923D6
:101A20008C93888189230BC0623061F42FB7F894BE
:101A30008C91932F909589238C938881832B888315
:101A40002FBF06C09FB7F8948C91832B8C939FBFB8
:101A5000DF91CF910895482F50E0CA0182559F4FE2
:101A6000FC012491CA0186569F4FFC0194914A576C
:101A70005F4FFA013491332309F440C0222351F11E
:101A8000233071F0243028F42130A1F0223011F5F8
:101A900014C02630B1F02730C1F02430D9F404C08E
:101AA000809180008F7703C0809180008F7D80932C
:101AB000800010C084B58F7702C084B58F7D84BD4F
:101AC00009C08091B0008F7703C08091B0008F7DF6
:101AD0008093B000E32FF0E0EE0FFF1FEE58FF4FB2
:101AE000A591B4912FB7F894662321F48C91909529
:101AF000892302C08C91892B8C932FBF0895682F66
:101B000070E0CB0182559F4FFC012491CB0186569A
:101B10009F4FFC0144916A577F4FFB019491992399
:101B200019F420E030E03CC0222351F1233071F061
:101B3000243028F42130A1F0223011F514C02630D1
:101B4000B1F02730C1F02430D9F404C08091800076
:101B50008F7703C0809180008F7D8093800010C0BC
:101B600084B58F7702C084B58F7D84BD09C0809114
:101B7000B0008F7703C08091B0008F7D8093B0005C
:101B8000892F90E0880F991F84589F4FFC01A591E1
:101B9000B4918C9120E030E0842311F021E030E01A
:101BA000C90108955058BB27AA270ED00DC1FED0F9
:101BB00030F003D120F031F49F3F11F41EF4F3C054
:101BC0000EF4E095E7FBE9C0E92F0FD180F3BA17D7
:101BD000620773078407950718F071F49EF527C113
:101BE0000EF4E0950B2EBA2FA02D0B01B901900138
:101BF0000C01CA01A0011124FF27591B99F0593F7C
:101C000050F4503E68F11A16F040A22F232F342FC3
:101C10004427585FF3CF469537952795A795F04011
:101C20005395C9F77EF41F16BA0B620B730B840B26
:101C3000BAF09150A1F0FF0FBB1F661F771F881FDE
:101C4000C2F70EC0BA0F621F731F841F48F4879536
:101C500077956795B795F7959E3F08F0B3CF939525
:101C6000880F08F09927EE0F97958795089571D002
:101C700008F481E0089504D06894B111D9C00895A2
:101C8000BCD088F09F5790F0B92F9927B751A0F09A
:101C9000D1F0660F771F881F991F1AF0BA95C9F700
:101CA00012C0B13081F0C3D0B1E00895C0C0672F39
:101CB000782F8827B85F39F0B93FCCF386957795B0
:101CC0006795B395D9F73EF4909580957095619599
:101CD0007F4F8F4F9F4F0895E89409C097FB3EF4C4
:101CE00090958095709561957F4F8F4F9F4F992369
:101CF000A9F0F92F96E9BB279395F69587957795E7
:101D00006795B795F111F8CFFAF4BB0F11F460FFA6
:101D10001BC06F5F7F4F8F4F9F4F16C0882311F0FE
:101D200096E911C0772321F09EE8872F762F05C012
:101D3000662371F096E8862F70E060E02AF09A95AD
:101D4000660F771F881FDAF7880F9695879597F9A2
:101D50000895990F0008550FAA0BE0E8FEEF16163C
:101D60001706E807F907C0F012161306E407F5078F
:101D700098F0621B730B840B950B39F40A2661F003
:101D8000232B242B252B21F408950A2609F4A140A6
:101D9000A6958FEF811D811D089597F99F6780E8B3
:101DA00070E060E008959FEF80EC089500240A94AD
:101DB0001616170618060906089500240A94121626
:101DC0001306140605060895092E0394000C11F459
:101DD000882352F0BB0F40F4BF2B11F460FF04C006
:101DE0006F5F7F4F8F4F9F4F089557FD9058440F5F
:101DF000551F59F05F3F71F04795880F97FB991F6A
:101E000061F09F3F79F08795089512161306140626
:101E1000551FF2CF4695F1DF08C0161617061806B3
:101E2000991FF1CF86957105610508940895E8948E
:101E3000BB2766277727CB0197F908958ADF08F437
:101E40008FEF08950BD0C0CFB1DF28F0B6DF18F0C8
:101E5000952309F0A2CFA7CF1124EACFC6DFA0F3C4
:101E6000959FD1F3950F50E0551F629FF001729F2F
:101E7000BB27F00DB11D639FAA27F00DB11DAA1F4E
:101E8000649F6627B00DA11D661F829F2227B00D9B
:101E9000A11D621F739FB00DA11D621F839FA00D26
:101EA000611D221F749F3327A00D611D231F849F76
:101EB000600D211D822F762F6A2F11249F575040CD
:101EC0008AF0E1F088234AF0EE0FFF1FBB1F661F68
:101ED000771F881F91505040A9F79E3F510570F021
:101EE0005CCFA6CF5F3FECF3983EDCF38695779509
:101EF0006795B795F795E7959F5FC1F7FE2B880F1C
:101F0000911D9695879597F90895629FD001739FCB
:101F1000F001829FE00DF11D649FE00DF11D929F85
:101F2000F00D839FF00D749FF00D659FF00D9927C4
:101F3000729FB00DE11DF91F639FB00DE11DF91FE8
:101F4000BD01CF0111240895AA1BBB1B51E107C09D
:101F5000AA1FBB1FA617B70710F0A61BB70B881F39
:101F6000991F5A95A9F780959095BC01CD010895C8
:101F7000A1E21A2EAA1BBB1BFD010DC0AA1FBB1F8D
:101F8000EE1FFF1FA217B307E407F50720F0A21BFF
:101F9000B30BE40BF50B661F771F881F991F1A946C
:101FA00069F760957095809590959B01AC01BD0196
:101FB000CF010895EE0FFF1F0590F491E02D0994D5
:041FC000F894FFCFC3
:101FC4003A002C000A0068656C6C6F21000A00015D
:101FD40000800040002000100008000400020001FE
:101FE40080004000200010000800040002000100EE
:101FF40000000000B0057F05FD0406051B052C0547
:1020040000000000000000005E0000000002010269
:10201400010014741E741E14644AFF522600044AFC
:10202400342C5220304E5A2E584002010000000039
:102034000000003C42810081423C000014083E083C
:10204400140008083E08080080400000000008084A
:102054000808080000400000000080601806010025
:102064003C4242423C0000447E40000044625252E2
:102074004E0024424A4A36001028247E20002E4A6C
:102084004A4A32003C4A4A4A30000602720E0200B2
:10209400344A524A34000C5252523C000000480068
:1020A40000000000C8000000000814224241282853
:1020B400282828000041222414080402520A04009B
:1020C400007C82BAA67C4078263C6040427E4A4A24
:1020D40036003C4242422600427E42423C00427E5E
:1020E4004A5E4200427E4A1A02003C664252361060
:1020F400427E10107E4200427E4200008082827E38
:102104000202427E4A146642427E424040407E0EB3
:10211400700E7E00427E08107E023C4242423C0029
:10212400427E4A0A0E003C6262C2BC00427E4A1AE7
:102134006E40644A4A52260002427E420200023E37
:1021440040403E02021E60320E020E700E780600FF
:1021540042665A664200024E7A46020042625A4E73
:1021640042000000FF81810000020C304000008129
:1021740081FF0000000201020000808080808080D6
:10218400020100000000002454547840027E4848B4
:1021940030000030484848000030484A7E40003053
:1021A4005858500000487E4A4A0200F8D8D8D8C887
:1021B400427E4808784000487A4000008080887A4F
:1021C4000000427E6078484800007E4000007808A5
:1021D400780878004878480878400030484830004B
:1021E40088F8C8483800003048C8F8804878500853
:1021F400080000586868680000087C4840000878B7
:1022040040487840081868201808186018701800AA
:10221400486830584800889868301808004868585A
:102224004800000008FF8100000000FF000000815A
:10223400FF08000001000001010000000000110A75
:0A224400A30AC709E309D309010A40
:00000001FF
