:100000000C9464000C94E80D0C94150E0C948C0068
:100010000C948C000C948C000C948C000C948C0030
:100020000C948C000C948C000C948C000C94E307C2
:100030000C948C000C948C000C948C000C948C0010
:100040000C949A0E0C948C000C94060A0C944D0A95
:100050000C948C000C948C000C948C000C948C00F0
:100060000C940B040C948C0000000000240027006A
:100070002A0000000000250028002B0000000000DE
:1000800023002600290004040404040404040202DA
:100090000202020203030303030301020408102007
:1000A0004080010204081020010204081020000012
:1000B0000007000201000003040600000000000029
:1000C0000000F405C6088A0B11241FBECFEFD8E04C
:1000D000DEBFCDBF11E0A0E0B1E0ECE7F1E202C08D
:1000E00005900D92A433B107D9F712E0A4E3B1E073
:1000F00001C01D92A23EB107E1F710E0C8ECD0E0CC
:1001000004C02297FE010E94B810C23CD107C9F773
:100110000E948B0E0C94BC100C9400000F931F9344
:1001200080913B01813031F410923B018091360186
:1001300080933C0180913C01833009F410C18430EC
:1001400020F4823009F0C5C11DC0843009F41AC101
:10015000853009F0BEC110923C0180913701909129
:100160003801809590952CE231E0829FB001839F09
:10017000700D929F700D112468517C4F81E00E9498
:10018000DB08A7C110923C018091340190913501A8
:10019000809590952CE231E0829FB001839F700D95
:1001A000929F700D112468517C4F81E00E94DB0802
:1001B00060ED77E080E090E00E942B0F209112012B
:1001C000309113018091340190913501820F931F7A
:1001D0009093350180933401309521953F4F3093B2
:1001E00013012093120180E060E070E00E94DB08C0
:1001F00083E06CEB72E00E94DB0864EF71E080E06A
:1002000090E00E942B0F81E00E94B20882E064E03F
:1002100042E350E020E030E000E010E00E940D03F7
:1002200068EC70E080E090E00E942B0F80E00E947C
:10023000A1088823D9F382E063E040E050E020E0A9
:1002400030E000E010E00E940D0380E00E94B20860
:1002500083E060E971E00E94DB0868EC70E080E018
:1002600090E00E942B0F82E064E048ED5FEF20E019
:1002700030E00E940D036CE271E080E090E00E94AB
:100280002B0F6CED75E080E090E00E942B0F82E078
:100290006AEF70E00E94DB0880E061E772E00E9494
:1002A000DB086CED75E080E090E00E942B0F80E0B1
:1002B00062E573E00E94DB0864EF71E080E090E0AB
:1002C0000E942B0F82E063E040E050E020E030E04D
:1002D0000E940D0382E064E873E00E94DB0864EF93
:1002E00071E080E090E00E942B0F81E00E94B20854
:1002F00082E064E040E550E020E030E00E940D0341
:1003000068EC70E080E090E00E942B0F80E00E949B
:10031000A1088823D9F380E00E94B20868EC70E05D
:1003200080E090E00E942B0F82E063E040E050E02C
:1003300020E030E000E010E00E940D0383E06CEB71
:1003400072E00E94DB0880E064E670E00E94DB0857
:1003500068EC70E080E090E00E942B0FBAC0409102
:10036000390150913A01440F551F4350504020919C
:1003700037013091380182E061E00AE010E00E942C
:100380000D03A5C083E06CEB72E00E94DB0864EF14
:1003900071E080E090E00E942B0F83E392E060E048
:1003A00071E00E94F40C82E065E042E050E020E061
:1003B00030E000E010E00E940D0368EC70E080E0A7
:1003C00090E00E942B0F64E670E080E090E00E94D5
:1003D0002B0F82E090E00E94050364E670E080E06D
:1003E00090E00E942B0F10E005C081EF91E00E9489
:1003F000CD05182F81EF91E00E94C405892BA9F744
:10040000112309F383E392E062E071E00E94F40CAF
:10041000409137015091380182E062E020E030E005
:1004200000E010E00E940D0364EF71E080E090E0D6
:100430000E942B0F82E065E041E050E020E030E0D8
:100440000E940D0310E064E670E080E090E00E94FE
:100450002B0F82E090E00E94050364E670E080E0EC
:1004600090E00E942B0F05C081EF91E00E94CD0526
:10047000182F81EF91E00E94C405892BA9F7113054
:1004800011F783E392E064E071E00E94F40C81E0F4
:100490000E94B20880E00E94A1088823D9F380E07E
:1004A0000E94B20883E068EE73E00E94DB0882E0FD
:1004B00063E040E050E020E030E000E010E00E9427
:1004C0000D0383E392E066E071E00E94F40C109269
:1004D0003C011F910F91089583E392E040E855E2BB
:1004E00060E070E00E947D0A0E944D030E94CE09E8
:1004F0000E94C20887E061E00E94930F87E061E0FC
:100500000E94D20F68EC70E080E090E00E942B0F18
:1005100087E060E00E94D20F78940895EF92FF92F6
:100520000F931F9306C083E392E00E94AE0D7B0100
:100530008C0183E392E00E94040B892BA1F781E0F8
:1005400080933B01C801B70124E630E040E050E071
:100550000E94871060933601C801B70124E630E09D
:1005600040E050E00E948710CA01B90120E137E263
:1005700040E050E00E94871070933801609337018B
:10058000C801B70120E432E44FE050E00E94871038
:1005900030933A012093390183E392E068E071E0FF
:1005A0000E94F40C83E392E0609136014AE050E04F
:1005B0000E94D60C83E392E06BE071E00E94F40CA1
:1005C000609137017091380183E392E04AE050E096
:1005D0000E94B90C83E392E06DE071E00E94F40C9C
:1005E0006091390170913A0183E392E04AE050E072
:1005F0000E94B90C83E392E060E171E00E94F40C88
:100600001F910F91FF90EF900895BC0181EF91E051
:1006100041E050E00E94900608959F92AF92BF92F1
:10062000CF92DF92EF92FF920F931F93782FD62EE7
:10063000C42EB52EA22E932E81EFE82E81E0F82E47
:10064000C701672F0E94BA05C7016D2D0E943C06A5
:10065000C7016C2D0E943C06C7016B2D0E943C0611
:10066000C7016A2D0E943C06C701692D0E943C0605
:10067000C701602F0E943C06C701612F0E943C0603
:10068000C7010E947F061F910F91FF90EF90DF90AE
:10069000CF90BF90AF909F90089581EF91E00E941E
:1006A00094060895382F413210F040E042C0809106
:1006B0003D018823E1F791E090933D0120933F01B4
:1006C0008FEF8093AA01109265014150409366011B
:1006D0004F5F90933E0180913E01330F832B8093B7
:1006E0003E0180914001813041F41092400180919F
:1006F0003E018093BB0085EC01C085EE8093BC0079
:1007000080913D018130E1F380916501841710F4FF
:100710004091650120E030E00AC0FB01E20FF31FC9
:10072000D901AB5BBE4F8C9180832F5F3F4F241765
:10073000A0F3842F08950F931F93582F122F413247
:1007400010F081E04AC080913D018823E1F782E00A
:1007500080933D0100933F018FEF8093AA01109297
:10076000650140936601A5E4B1E0FB0102C08191FF
:100770008D938E2F861B8417D0F310923E018091AB
:100780003E01550F852B80933E01809140018130C1
:1007900041F41092400180913E018093BB0085ECB2
:1007A00001C085EE8093BC00112321F080913D01B2
:1007B0008230E1F38091AA018F3F11F480E00DC0F7
:1007C0008091AA01803211F482E007C08091AA01D1
:1007D000803311F084E001C083E01F910F910895F0
:1007E000482F613210F081E0089580913D018430FE
:1007F00011F082E0089560938801A7E6B1E0842FAC
:100800009C01F90102C081918D938E2F841B861764
:10081000D0F380E008951F920F920FB60F9211242B
:100820002F933F934F935F936F937F938F939F93F8
:10083000AF93BF93EF93FF938091B90090E0887FCF
:1008400090708036910509F4F2C081369105CCF59F
:100850008832910509F47BC089329105B4F4803166
:10086000910509F46FC0813191053CF4009709F4BA
:1008700047C1089709F04FC165C08831910509F457
:1008800066C0809709F047C182C08034910509F4A1
:10089000A4C08134910544F48033910509F482C0E9
:1008A000C89709F038C189C08035910509F489C01D
:1008B0008835910509F496C08834910509F02BC15B
:1008C000AEC08839910509F413C189399105ECF45A
:1008D0008837910509F4ABC0893791054CF4883607
:1008E000910509F4A4C08037910509F014C19FC097
:1008F0008838910509F4FCC08039910509F49DC040
:100900008038910509F007C198C0803B910509F432
:10091000C6C0813B91054CF4803A910509F49FC013
:10092000883A910509F0F7C0BAC0803C910509F4F6
:10093000E3C0883C910509F4DFC0883B910509F0CC
:10094000EAC0C2C080913E018093BB00CFC09091AD
:10095000650180916601981768F490916501E92F0F
:10096000F0E0EB5BFE4F80818093BB009F5F909334
:100970006501BCC080913F01882309F44BC085ED1F
:100980008093BC008091BC0084FDFCCFC2C080E29B
:100990008093AA0185ED8093BC008091BC0084FD0A
:1009A000FCCFB7C080E38093AA0185ED8093BC00A3
:1009B0008091BC0084FDFCCFACC088E38093AA0189
:1009C0009BC0809165019091BB00E82FF0E0EB5B4C
:1009D000FE4F90838F5F80936501909165018091B8
:1009E000660182C0809165019091BB00E82FF0E024
:1009F000EB5BFE4F90838F5F8093650180913F0199
:100A0000882341F085ED8093BC008091BC0084FD7B
:100A1000FCCF7FC081E08093400184EA6EC085ED09
:100A20008093BC008091BC0084FDFCCF72C083E049
:100A300080933D011092A90159C08091A901803293
:100A400008F056C08091A9019091BB00E82FF0E01A
:100A5000E757FE4F90838F5F8093A90147C0809135
:100A6000A901803230F4E091A901F0E0E757FE4F90
:100A7000108285ED8093BC008091BC0084FDFCCF8A
:100A800010923D016091A901E0914301F091440170
:100A900089E891E070E009951092A9012DC084E0E9
:100AA00080933D011092870110928801E0914101ED
:100AB000F0914201099580918801882329F481E011
:100AC000809388011092670190918701E92FF0E0EF
:100AD000E959FE4F80818093BB009F5F909387010F
:100AE0009091870180918801981710F485EC01C0DE
:100AF00085E88093BC000FC085EC8093BC0009C0E2
:100B00001092AA0185ED8093BC008091BC0084FD09
:100B1000FCCF10923D01FF91EF91BF91AF919F915A
:100B20008F917F916F915F914F913F912F910F9096
:100B30000FBE0F901F90189510923D0181E0809399
:100B40003F011092400182E161E00E94D20F83E1F7
:100B500061E00E94D20FE9EBF0E080818E7F80831C
:100B600080818D7F808388E48093B80085E48093C2
:100B7000BC00089581E08093F0016093CD01109254
:100B8000EE011092EF0108952091CC0130E08091A8
:100B9000CB01281B3109C90108954091CB018091F7
:100BA000CC01481718F02FEF3FEF0AC0E42FF0E018
:100BB000E555FE4F8081282F30E04F5F4093CB01F9
:100BC000C9010895E091CB018091CC01E81718F09C
:100BD000EFEFFFEF06C0F0E0E555FE4F8081E82F14
:100BE000F0E0CF01089508951092F4011092F301FE
:100BF00088EE93E0A0E0B0E08093F5019093F601D9
:100C0000A093F701B093F80188E191E09093F2018D
:100C10008093F1010895CF92DF92EF92FF920F93AC
:100C20001F93CF93DF937C016B018A018091F001C8
:100C30008823A1F0C0E0D0E00DC0D701ED91FC9178
:100C4000D601AC0FBD1F0190F081E02DC7016C9162
:100C500009952196C017D10780F304C0CB01642FFA
:100C60000E94F003C801DF91CF911F910F91FF9077
:100C7000EF90DF90CF900895DF93CF930F92CDB791
:100C8000DEB7FC0169838091F0018823C9F080916F
:100C9000EF01803238F081E090E09383828320E09E
:100CA00030E015C08091EE01E82FF0E0E253FE4FF6
:100CB000998190838F5F8093EE018093EF0105C04F
:100CC000CE01019661E00E94F00321E030E0C9010D
:100CD0000F90CF91DF9108950F93062F8091CD0152
:100CE0006EEC71E04091EF0121E00E949B031092B5
:100CF000EE011092EF011092F0010F91089561E062
:100D00000E946C060895413208F040E2862F6BEA9B
:100D100071E00E9452031092CB018093CC010895A0
:100D200021E00E94830608951092CB011092CC011D
:100D30001092EE011092EF010E949C050895FC01B3
:100D40008091FD018C3090F480838F5F8093FD0152
:100D5000815090E0FC01EE0FFF1FE80FF91FE250F9
:100D6000FE4F88EB9BE09283818308958FEF808311
:100D70000895FC0120812C30B8F58181992787FDE9
:100D8000909548E850E0481B590B440F551F440FFD
:100D9000551F6417750784F08281992787FD909508
:100DA00048E552E0481B590B440F551F440F551F8F
:100DB000641775070CF4AB0142505040CA01AA27D2
:100DC00097FDA095BA2F880F991FAA1FBB1F4FB779
:100DD000F89430E0F901EE0FFF1FE20FF31FE2502D
:100DE000FE4F928381834FBF0895AF92BF92CF92FF
:100DF000DF92EF92FF920F931F93CF93DF93EC015B
:100E00009B0182E0603278070CF048C077FF03C096
:100E100020E030E005C0653B710514F024EB30E0C4
:100E200000D000D0B901882777FD8095982F2981BF
:100E3000332727FD3095E8E8AE2EB12CA21AB30A6D
:100E4000AA0CBB1CAA0CBB1CCC24B7FCC094DC2C89
:100E5000EA81FF27E7FDF09528E532E02E1B3F0BE6
:100E6000220F331F220F331F442737FD4095542F85
:100E7000EDB7FEB7218332834383548320E030E013
:100E800040E050E004EBE02EF12C012D112D0E94EA
:100E9000420E9B010F900F900F900F90CE01B90161
:100EA0000E94B906DF91CF911F910F91FF90EF90B3
:100EB000DF90CF90BF90AF900895CF92DF92EF92E6
:100EC000FF921F93CF93DF93EC01162F7A016901F4
:100ED00088818C3008F064C0862F61E00E94930FF7
:100EE000888190E0FC01EE0FFF1FE80FF91FE25030
:100EF000FE4F1F738081807C812B808380E292E093
:100F00008E199F0964E070E00E945210698380E6A8
:100F100099E08C199D0964E070E00E9452106A8388
:100F2000A8818A2F6CE00E944610682F70E0AB0108
:100F3000440F551F460F571F440F551F440F551F91
:100F400020E030E0C901840F951FFC01EE0FFF1F68
:100F5000E80FF91FE250FE4F808186FD15C02F5F1C
:100F60003F4F2C30310571F724C01092800082E091
:100F7000809381001092850010928400B19A809134
:100F80006F00826080936F008A2F90E0FC01EE0F6B
:100F9000FF1FE80FF91FE250FE4F808180648083BD
:100FA0008881DF91CF911F91FF90EF90DF90CF90DC
:100FB0000895672BD1F2E8CF40E252E020E639E015
:100FC0000E945D0708951F920F920FB60F92112491
:100FD0002F933F934F935F936F937F938F939F9341
:100FE000AF93BF93EF93FF938091220287FF05C0D9
:100FF00010928500109284002BC02091220233278A
:1010000027FD30958091FD0190E02817390704F500
:1010100080912202992787FD9095FC01EE0FFF1F1A
:10102000E80FF91FE250FE4F808186FF11C08091CA
:101030002202992787FD9095FC01EE0FFF1FE80F14
:10104000F91FE250FE4F80818F7360E00E94D20F43
:10105000809122028F5F8093220220912202332707
:1010600027FD30958091FD0190E0281739070CF09D
:101070004EC0809122028C300CF049C02091840037
:101080003091850080912202992787FD9095FC017F
:10109000EE0FFF1FE80FF91FE250FE4F8181928192
:1010A000820F931F90938900809388008091220281
:1010B000992787FD9095FC01EE0FFF1FE80FF91FA0
:1010C000E250FE4F808186FF2BC08091220299273B
:1010D00087FD9095FC01EE0FFF1FE80FF91FE2500E
:1010E000FE4F80818F7361E00E94D20F19C080E4AF
:1010F0009CE905C0809184009091850004969093AE
:101100008900809388008FEF8093220209C080912C
:10111000840090918500049680549C4940F3EACF66
:10112000FF91EF91BF91AF919F918F917F916F91BF
:101130005F914F913F912F910F900FBE0F901F9095
:101140001895882311F080E0089580912302089576
:1011500081E08093230262E370E080E090E00E94EF
:101160002B0F0895813051F41092230280E068EA39
:1011700078E042E050E00E94B20D089580E00E94C5
:10118000D50D089580E00E94B208089584E292E0AF
:101190000E949F0687E292E00E949F068AE292E008
:1011A0000E949F068DE292E00E949F0680E392E0FB
:1011B0000E949F060895AF92BF92CF92DF92EF9266
:1011C000FF920F931F939B01823009F461C083301B
:1011D00034F4882359F0813009F0D7C030C083300F
:1011E00009F47FC0843009F0D0C0A4C000D000D082
:1011F000B901882777FD8095982F2EE031E040E0F7
:1012000050E0EDB7FEB7218332834383548320E05F
:1012100030E040E050E01FEFE12E13E0F12E012D11
:10122000112DAA24BB2465010E94420E9B01AC0132
:101230000F900F900F900F9084E292E0A3C000D027
:1012400000D0B901882777FD8095982F24EB30E0F6
:1012500040E050E0EDB7FEB72183328343835483EF
:1012600020E030E040E050E0BFEFEB2EB3E0FB2E9B
:10127000012D112DAA24BB2465010E94420E9B0161
:10128000AC010F900F900F900F9087E292E07AC020
:1012900000D000D0B901882777FD8095982F24EBE6
:1012A00030E040E050E0EDB7FEB721833283438366
:1012B000548320E030E040E050E0AFEFEA2EA3E0BE
:1012C000FA2E012D112DAA24BB2465010E94420E85
:1012D0009B01AC010F900F900F900F908AE292E06B
:1012E00051C000D000D0B901882777FD8095982F94
:1012F00024EB30E040E050E0EDB7FEB721833283CD
:101300004383548320E030E040E050E0FFEFEF2ED5
:10131000F3E0FF2E012D112DAA24BB2465010E94AC
:10132000420E9B01AC010F900F900F900F908DE239
:1013300092E028C000D000D0B901882777FD8095C1
:10134000982F24EB30E040E050E0EDB7FEB721836A
:1013500032834383548320E030E040E050E0EFEFFD
:10136000EE2EE3E0FE2E012D112DAA24BB246501F3
:101370000E94420E9B01AC010F900F900F900F90B6
:1013800080E392E0B9010E94F5061F910F91FF9052
:10139000EF90DF90CF90BF90AF90089584E292E0FD
:1013A00068E070E00E94DC0780E064E670E00E9484
:1013B000DB0887E292E069E070E00E94DC0781E0F0
:1013C00068EE73E00E94DB088AE292E06AE070E077
:1013D0000E94DC0782E064E873E00E94DB088DE293
:1013E00092E06BE070E00E94DC0783E06CEB72E05F
:1013F0000E94DB0880E392E06CE070E00E94DC0772
:1014000084E064EF71E00E94DB0808951F920F9260
:101410000FB60F9211242F933F934F938F939F9367
:10142000EF93FF938091C00082FD19C04091C600E8
:1014300080915102282F30E02F5F3F4F2F73307083
:101440008091520290E02817390759F0E09151023B
:10145000F0E0ED5CFD4F42A32093510202C0809169
:10146000C600FF91EF919F918F914F913F912F91E6
:101470000F900FBE0F901F901895809151022091F0
:10148000520290E0805C9F4F821B91098F73907095
:10149000892B11F00E948E0208951F920F920FB6B1
:1014A0000F9211242F938F939F93EF93FF9390911B
:1014B000530280915402981731F48091C1008F7DBE
:1014C0008093C10010C0E0915402F0E0EB56FD4F54
:1014D00020818091540290E001968F7390708093E8
:1014E00054022093C600FF91EF919F918F912F910D
:1014F0000F900FBE0F901F901895AF92BF92DF9282
:10150000EF92FF920F931F93CF93DF93EC017A0139
:101510008B01DD24403081EE580780E0680780E0D1
:10152000780711F0DD24D39491E0A92EB12CE8893D
:10153000F989DD2069F0C5010C8C02C0880F991F64
:101540000A94E2F7808360E079E08DE390E005C0E3
:10155000108260E874E88EE190E0A80197010E9493
:101560006510215030404040504056954795379582
:10157000279580E12030380720F0DD2011F0DD24B0
:10158000D6CFEC85FD853083EE85FF8520831D8ECB
:10159000EA89FB89408121E030E0C901088C02C062
:1015A000880F991F0A94E2F7482B4083EA89FB8948
:1015B0004081C901098C02C0880F991F0A94E2F783
:1015C000482B4083EA89FB894081C9010A8C02C00B
:1015D000880F991F0A94E2F7482B4083EA89FB8918
:1015E00080810B8C02C0220F331F0A94E2F72095F2
:1015F00028232083DF91CF911F910F91FF90EF90CF
:10160000DF90BF90AF900895FC01268D878D30E06C
:10161000205C3F4F281B31092F733070C90108959A
:10162000FC01968D878D981719F42FEF3FEF06C0B8
:10163000878DE80FF11D82A1282F30E0C9010895A0
:10164000DC015E969C915E975F968C915F979817F0
:1016500019F42FEF3FEF10C05F968C915F97FD015B
:10166000E80FF11D92A15F968C915F978F5F8F734A
:101670005F968C93292F30E0C9010895DC015D96B7
:101680008C915D97882339F05096ED91FC9151979C
:10169000808186FFF9CF5D961C920895DC019096BB
:1016A0008C919097282F30E02F5F3F4F2F73307031
:1016B00091968C91919790E028173907C9F39096ED
:1016C0008C919097FD01E80FF11DEE59FF4F60835B
:1016D00090962C9390975296ED91FC915397208180
:1016E00081E090E05B960C905B9702C0880F991F99
:1016F0000A94E2F7282B208381E05D968C935D9716
:101700005096ED91FC91519780818064808381E0B7
:1017100090E00895109236021092350288EE93E020
:10172000A0E0B0E08093370290933802A093390292
:10173000B0933A0288E291E09093340280933302AE
:1017400010925402809154028093530210925202DC
:10175000809152028093510285EC90E09093400278
:1017600080933F0284EC90E0909342028093410288
:1017700080EC90E0909344028093430281EC90E0EF
:10178000909346028093450282EC90E09093480249
:101790008093470286EC90E090934A02809349023E
:1017A00084E080934B0283E080934C0287E0809337
:1017B0004D0285E080934E0281E080934F020895B0
:1017C000CF92DF92EF92FF920F931F93CF93DF930D
:1017D0007C016B018A01C0E0D0E00FC0D6016D91A1
:1017E0006D01D701ED91FC910190F081E02DC701D1
:1017F0000995C80FD91F015010400115110571F747
:10180000CE01DF91CF911F910F91FF90EF90DF906C
:10181000CF900895EF92FF920F931F938C01DC01FC
:10182000ED91FC910190F081E02D6DE009957C0136
:10183000D801ED91FC910190F081E02DC8016AE0A2
:1018400009959C012E0D3F1DC9011F910F91FF901D
:10185000EF900895CF93DF93EC016115710519F4B2
:1018600020E030E00FC0DB010D900020E9F7119778
:10187000A61BB70BE881F9810280F381E02DAD0151
:1018800009959C01C901DF91CF9108954F925F9214
:101890007F928F929F92AF92BF92CF92DF92EF9200
:1018A000FF920F931F93DF93CF93CDB7DEB7A1972E
:1018B0000FB6F894DEBF0FBECDBF2C01742ECB0146
:1018C000223008F42AE019A231E2C32ED12CCC0E2A
:1018D000DD1E822E9924AA24BB24672D752FA50115
:1018E00094010E94651079018A01C801B701A50120
:1018F00094010E942710472D461B0894C108D10867
:101900004A3014F4405D01C0495CF6014083E114A3
:10191000F1040105110521F07E2C5F2DC801DDCFFA
:10192000C201B6010E942A0CA1960FB6F894DEBF40
:101930000FBECDBFCF91DF911F910F91FF90EF9020
:10194000DF90CF90BF90AF909F908F907F905F90EF
:101950004F900895DC012115310541F4ED91FC9182
:101960000190F081E02D642F099508950E94460CA6
:101970000895CF92DF92EF92FF920F931F936C0125
:101980007B019A0100E010E0B801A7010E94AA0CB7
:101990008C01C6010E940A0C080F191FC8011F9173
:1019A0000F91FF90EF90DF90CF900895CF92DF924C
:1019B000EF92FF920F931F936C01E62E9A01FF2482
:1019C00000E010E0B801A7010E94AA0C8C01C6013A
:1019D0000E940A0C080F191FC8011F910F91FF9058
:1019E000EF90DF90CF9008950E942A0C0895CF9336
:1019F000DF93EC010E94E20E688779878A879B87D4
:101A0000E881F9810084F185E02DCE0109959C01E2
:101A100097FF15C00E94E20E288539854A855B85AF
:101A2000621B730B840B950B2C813D814E815F8172
:101A3000621773078407950718F32FEF3FEFC9016B
:101A4000DF91CF910895CF93DF93EC01CE010E94F7
:101A5000F70C9C0197FD0EC08D32910559F0C0978F
:101A60000A9740F0E881F9810680F781E02DCE01E8
:101A70000995ECCFC901DF91CF9108959F92AF9264
:101A8000BF92CF92DF92EF92FF920F931F93CF936B
:101A9000DF936C01B62E0E94230DEC0197FF04C06A
:101AA000EE24FF2487014CC09924EE24FF248701F3
:101AB000AB2CBB24A7FCB094CA15DB0529F1CD32B1
:101AC000D10519F4992493941FC0CE01C0970A97A9
:101AD000D8F4C801B7012AE030E040E050E00E94AD
:101AE00027107B018C01CE01AA2797FDA095BA2F64
:101AF000E80EF91E0A1F1B1F80ED9FEFAFEFBFEF2F
:101B0000E80EF91E0A1F1B1FD601ED91FC910680FD
:101B1000F781E02DC6010995C6010E94F70CEC0182
:101B2000C0970A9748F2CA15DB0531F2992041F0B7
:101B300010950095F094E094E11CF11C011D111D1D
:101B4000B701C801DF91CF911F910F91FF90EF90E6
:101B5000DF90CF90BF90AF909F90089561E00E947A
:101B60003E0D0895823000F5E82FF0E0EE0FFF1FE4
:101B7000EB52FD4F71836083882319F08130A1F40B
:101B800008C0809169008C7F842B80936900E89A5B
:101B9000089580916900440F551F440F551F837F9E
:101BA000842B80936900E99A0895823080F4882319
:101BB00019F0813021F402C0E89801C0E998E82FBB
:101BC000F0E0EE0FFF1FEB52FD4F118210820895DF
:101BD0001F920F920FB60F9211242F933F934F93A2
:101BE0005F936F937F938F939F93AF93BF93EF9385
:101BF000FF938091D5029091D602892B29F0E09134
:101C0000D502F091D6020995FF91EF91BF91AF9166
:101C10009F918F917F916F915F914F913F912F9104
:101C20000F900FBE0F901F9018951F920F920FB636
:101C30000F9211242F933F934F935F936F937F9352
:101C40008F939F93AF93BF93EF93FF938091D702AE
:101C50009091D802892B29F0E091D702F091D80217
:101C60000995FF91EF91BF91AF919F918F917F91D6
:101C70006F915F914F913F912F910F900FBE0F90F9
:101C80001F9018952F923F924F925F926F927F9282
:101C90008F929F92AF92BF92CF92DF92EF92FF927C
:101CA0000F931F93DF93CF93CDB7DEB73B014C016A
:101CB00019012A016D897E898F89988D6A197B099E
:101CC0008C099D09621A730A840A950AA40193017A
:101CD0000E942710E218F30804091509A8019701CA
:101CE0000E9487102A0D3B1D4C1D5D1DB901CA01C4
:101CF000CF91DF911F910F91FF90EF90DF90CF90E8
:101D0000BF90AF909F908F907F906F905F904F901B
:101D10003F902F900895CF93DF930E94F00E0E9482
:101D20006C02CDE3DAE00E948E002097E1F30E947E
:101D30003D0AF9CF1F920F920FB60F9211242F93E5
:101D40003F938F939F93AF93BF938091DD029091C8
:101D5000DE02A091DF02B091E0023091E102019633
:101D6000A11DB11D232F2D5F2D3720F02D5701967A
:101D7000A11DB11D2093E1028093DD029093DE024C
:101D8000A093DF02B093E0028091D9029091DA0231
:101D9000A091DB02B091DC020196A11DB11D8093E0
:101DA000D9029093DA02A093DB02B093DC02BF91D8
:101DB000AF919F918F913F912F910F900FBE0F90F8
:101DC0001F9018958FB7F8942091DD023091DE02B4
:101DD0004091DF025091E0028FBFB901CA0108951E
:101DE000789484B5826084BD84B5816084BD85B5F6
:101DF000826085BD85B5816085BDEEE6F0E08081BD
:101E000081608083E1E8F0E01082808182608083DD
:101E1000808181608083E0E8F0E080818160808360
:101E2000E1EBF0E0808184608083E0EBF0E0808192
:101E300081608083EAE7F0E0808184608083808134
:101E400082608083808181608083808180688083DC
:101E50001092C1000895EF92FF920F931F93CF93BA
:101E6000DF937B018C013FB7F8948091D902909168
:101E7000DA02A091DB02B091DC0226B5A89B05C076
:101E80002F3F19F00196A11DB11D3FBFBA2FA92FF9
:101E9000982F8827820F911DA11DB11D52E0880F38
:101EA000991FAA1FBB1F5A95D1F7EC0130C00E94A1
:101EB00026103FB7F8948091D9029091DA02A09150
:101EC000DB02B091DC0226B5A89B05C02F3F19F0BC
:101ED0000196A11DB11D3FBFBA2FA92F982F8827AA
:101EE000820F911DA11DB11D32E0880F991FAA1FFD
:101EF000BB1F3A95D1F78C1B9D0B885E9340B8F2BF
:101F00000894E108F10801091109C851DC4FE114F6
:101F1000F1040105110559F6DF91CF911F910F9141
:101F2000FF90EF900895CF93DF93482F50E0CA01C0
:101F300086569F4FFC0134914A575F4FFA018491B6
:101F4000882369F190E0880F991FFC01E859FF4F41
:101F5000A591B491FC01EE58FF4FC591D491662331
:101F600051F42FB7F8948C91932F909589238C93EB
:101F7000888189230BC0623061F42FB7F8948C916B
:101F8000932F909589238C938881832B88832FBFEF
:101F900006C09FB7F8948C91832B8C939FBFDF91E1
:101FA000CF910895482F50E0CA0182559F4FFC0100
:101FB0002491CA0186569F4FFC0194914A575F4F66
:101FC000FA013491332309F440C0222351F1233024
:101FD00071F0243028F42130A1F0223011F514C022
:101FE0002630B1F02730C1F02430D9F404C08091FC
:101FF00080008F7703C0809180008F7D8093800068
:1020000010C084B58F7702C084B58F7D84BD09C0B0
:102010008091B0008F7703C08091B0008F7D809356
:10202000B000E32FF0E0EE0FFF1FEE58FF4FA59139
:10203000B4912FB7F894662321F48C91909589235D
:1020400002C08C91892B8C932FBF08950895629FB5
:10205000D001739FF001829FE00DF11D649FE00DA0
:10206000F11D929FF00D839FF00D749FF00D659F01
:10207000F00D9927729FB00DE11DF91F639FB00D00
:10208000E11DF91FBD01CF0111240895991B79E0CD
:1020900004C0991F961708F0961B881F7A95C9F7F8
:1020A0008095089597FB092E07260AD077FD04D066
:1020B00049D006D000201AF4709561957F4F08959D
:1020C000F6F7909581959F4F0895A1E21A2EAA1BCD
:1020D000BB1BFD010DC0AA1FBB1FEE1FFF1FA217D8
:1020E000B307E407F50720F0A21BB30BE40BF50BD5
:1020F000661F771F881F991F1A9469F7609570955E
:10210000809590959B01AC01BD01CF01089597FB8F
:10211000092E05260ED057FD04D0D7DF0AD0001CAB
:1021200038F450954095309521953F4F4F4F5F4F74
:102130000895F6F790958095709561957F4F8F4F34
:102140009F4F0895AA1BBB1B51E107C0AA1FBB1FCD
:10215000A617B70710F0A61BB70B881F991F5A9533
:10216000A9F780959095BC01CD010895EE0FFF1F52
:0C2170000590F491E02D0994F894FFCF45
:10217C0041004200430044004F4B003A002C200029
:10218C000A000100000000003C060B06C405CD054A
:10219C00E205F305000000004E0BE00B040B200BD6
:0421AC00100B3E0BCB
:00000001FF
